{
    "contractName": "OpenAR",
    "abi": [
        {
            "anonymous": false,
            "inputs": [
                {
                    "indexed": true,
                    "internalType": "address",
                    "name": "owner",
                    "type": "address"
                },
                {
                    "indexed": true,
                    "internalType": "address",
                    "name": "approved",
                    "type": "address"
                },
                {
                    "indexed": true,
                    "internalType": "uint256",
                    "name": "tokenId",
                    "type": "uint256"
                }
            ],
            "name": "Approval",
            "type": "event"
        },
        {
            "anonymous": false,
            "inputs": [
                {
                    "indexed": true,
                    "internalType": "address",
                    "name": "owner",
                    "type": "address"
                },
                {
                    "indexed": true,
                    "internalType": "address",
                    "name": "operator",
                    "type": "address"
                },
                {
                    "indexed": false,
                    "internalType": "bool",
                    "name": "approved",
                    "type": "bool"
                }
            ],
            "name": "ApprovalForAll",
            "type": "event"
        },
        {
            "anonymous": false,
            "inputs": [
                {
                    "indexed": false,
                    "internalType": "string",
                    "name": "assetURI",
                    "type": "string"
                },
                {
                    "indexed": false,
                    "internalType": "uint256",
                    "name": "amount",
                    "type": "uint256"
                }
            ],
            "name": "LicencePurchased",
            "type": "event"
        },
        {
            "anonymous": false,
            "inputs": [
                {
                    "indexed": true,
                    "internalType": "address",
                    "name": "from",
                    "type": "address"
                },
                {
                    "indexed": true,
                    "internalType": "address",
                    "name": "to",
                    "type": "address"
                },
                {
                    "indexed": true,
                    "internalType": "uint256",
                    "name": "tokenId",
                    "type": "uint256"
                }
            ],
            "name": "Transfer",
            "type": "event"
        },
        {
            "inputs": [
                {
                    "internalType": "address",
                    "name": "to",
                    "type": "address"
                },
                {
                    "internalType": "uint256",
                    "name": "tokenId",
                    "type": "uint256"
                }
            ],
            "name": "approve",
            "outputs": [],
            "stateMutability": "nonpayable",
            "type": "function"
        },
        {
            "inputs": [
                {
                    "internalType": "address",
                    "name": "owner",
                    "type": "address"
                }
            ],
            "name": "balanceOf",
            "outputs": [
                {
                    "internalType": "uint256",
                    "name": "",
                    "type": "uint256"
                }
            ],
            "stateMutability": "view",
            "type": "function",
            "constant": true
        },
        {
            "inputs": [
                {
                    "internalType": "uint256",
                    "name": "tokenId",
                    "type": "uint256"
                }
            ],
            "name": "burn",
            "outputs": [],
            "stateMutability": "nonpayable",
            "type": "function"
        },
        {
            "inputs": [
                {
                    "internalType": "uint256",
                    "name": "tokenId",
                    "type": "uint256"
                }
            ],
            "name": "getApproved",
            "outputs": [
                {
                    "internalType": "address",
                    "name": "",
                    "type": "address"
                }
            ],
            "stateMutability": "view",
            "type": "function",
            "constant": true
        },
        {
            "inputs": [
                {
                    "internalType": "address",
                    "name": "owner",
                    "type": "address"
                },
                {
                    "internalType": "address",
                    "name": "operator",
                    "type": "address"
                }
            ],
            "name": "isApprovedForAll",
            "outputs": [
                {
                    "internalType": "bool",
                    "name": "",
                    "type": "bool"
                }
            ],
            "stateMutability": "view",
            "type": "function",
            "constant": true
        },
        {
            "inputs": [],
            "name": "name",
            "outputs": [
                {
                    "internalType": "string",
                    "name": "",
                    "type": "string"
                }
            ],
            "stateMutability": "view",
            "type": "function",
            "constant": true
        },
        {
            "inputs": [
                {
                    "internalType": "uint256",
                    "name": "tokenId",
                    "type": "uint256"
                }
            ],
            "name": "ownerOf",
            "outputs": [
                {
                    "internalType": "address",
                    "name": "",
                    "type": "address"
                }
            ],
            "stateMutability": "view",
            "type": "function",
            "constant": true
        },
        {
            "inputs": [
                {
                    "internalType": "address",
                    "name": "from",
                    "type": "address"
                },
                {
                    "internalType": "address",
                    "name": "to",
                    "type": "address"
                },
                {
                    "internalType": "uint256",
                    "name": "tokenId",
                    "type": "uint256"
                }
            ],
            "name": "safeTransferFrom",
            "outputs": [],
            "stateMutability": "nonpayable",
            "type": "function"
        },
        {
            "inputs": [
                {
                    "internalType": "address",
                    "name": "from",
                    "type": "address"
                },
                {
                    "internalType": "address",
                    "name": "to",
                    "type": "address"
                },
                {
                    "internalType": "uint256",
                    "name": "tokenId",
                    "type": "uint256"
                },
                {
                    "internalType": "bytes",
                    "name": "_data",
                    "type": "bytes"
                }
            ],
            "name": "safeTransferFrom",
            "outputs": [],
            "stateMutability": "nonpayable",
            "type": "function"
        },
        {
            "inputs": [
                {
                    "internalType": "address",
                    "name": "operator",
                    "type": "address"
                },
                {
                    "internalType": "bool",
                    "name": "approved",
                    "type": "bool"
                }
            ],
            "name": "setApprovalForAll",
            "outputs": [],
            "stateMutability": "nonpayable",
            "type": "function"
        },
        {
            "inputs": [],
            "name": "symbol",
            "outputs": [
                {
                    "internalType": "string",
                    "name": "",
                    "type": "string"
                }
            ],
            "stateMutability": "view",
            "type": "function",
            "constant": true
        },
        {
            "inputs": [
                {
                    "internalType": "uint256",
                    "name": "index",
                    "type": "uint256"
                }
            ],
            "name": "tokenByIndex",
            "outputs": [
                {
                    "internalType": "uint256",
                    "name": "",
                    "type": "uint256"
                }
            ],
            "stateMutability": "view",
            "type": "function",
            "constant": true
        },
        {
            "inputs": [
                {
                    "internalType": "address",
                    "name": "owner",
                    "type": "address"
                },
                {
                    "internalType": "uint256",
                    "name": "index",
                    "type": "uint256"
                }
            ],
            "name": "tokenOfOwnerByIndex",
            "outputs": [
                {
                    "internalType": "uint256",
                    "name": "",
                    "type": "uint256"
                }
            ],
            "stateMutability": "view",
            "type": "function",
            "constant": true
        },
        {
            "inputs": [],
            "name": "totalSupply",
            "outputs": [
                {
                    "internalType": "uint256",
                    "name": "",
                    "type": "uint256"
                }
            ],
            "stateMutability": "view",
            "type": "function",
            "constant": true
        },
        {
            "inputs": [
                {
                    "internalType": "address",
                    "name": "from",
                    "type": "address"
                },
                {
                    "internalType": "address",
                    "name": "to",
                    "type": "address"
                },
                {
                    "internalType": "uint256",
                    "name": "tokenId",
                    "type": "uint256"
                }
            ],
            "name": "transferFrom",
            "outputs": [],
            "stateMutability": "nonpayable",
            "type": "function"
        },
        {
            "inputs": [
                {
                    "internalType": "string",
                    "name": "_tokenURI",
                    "type": "string"
                },
                {
                    "internalType": "string",
                    "name": "_assetURI",
                    "type": "string"
                },
                {
                    "internalType": "uint256",
                    "name": "price",
                    "type": "uint256"
                },
                {
                    "internalType": "address payable",
                    "name": "owner",
                    "type": "address"
                }
            ],
            "name": "mint",
            "outputs": [],
            "stateMutability": "nonpayable",
            "type": "function"
        },
        {
            "inputs": [
                {
                    "internalType": "uint256",
                    "name": "tokenId",
                    "type": "uint256"
                }
            ],
            "name": "tokenURI",
            "outputs": [
                {
                    "internalType": "string",
                    "name": "",
                    "type": "string"
                }
            ],
            "stateMutability": "view",
            "type": "function",
            "constant": true
        },
        {
            "inputs": [
                {
                    "internalType": "bytes4",
                    "name": "interfaceId",
                    "type": "bytes4"
                }
            ],
            "name": "supportsInterface",
            "outputs": [
                {
                    "internalType": "bool",
                    "name": "",
                    "type": "bool"
                }
            ],
            "stateMutability": "view",
            "type": "function",
            "constant": true
        }
    ],
    "bytecode": "0x60806040523480156200001157600080fd5b506040518060400160405280600681526020017f4f70656e415200000000000000000000000000000000000000000000000000008152506040518060400160405280600581526020017f41524e4654000000000000000000000000000000000000000000000000000000815250816000908051906020019062000096929190620000b8565b508060019080519060200190620000af929190620000b8565b505050620001cd565b828054620000c69062000168565b90600052602060002090601f016020900481019282620000ea576000855562000136565b82601f106200010557805160ff191683800117855562000136565b8280016001018555821562000136579182015b828111156200013557825182559160200191906001019062000118565b5b50905062000145919062000149565b5090565b5b80821115620001645760008160009055506001016200014a565b5090565b600060028204905060018216806200018157607f821691505b602082108114156200019857620001976200019e565b5b50919050565b7f4e487b7100000000000000000000000000000000000000000000000000000000600052602260045260246000fd5b61370480620001dd6000396000f3fe608060405234801561001057600080fd5b50600436106101165760003560e01c80634f6ccce7116100a2578063a22cb46511610071578063a22cb46514610305578063b88d4fde14610321578063c87b56dd1461033d578063e985e9c51461036d578063f7bc69841461039d57610116565b80634f6ccce7146102575780636352211e1461028757806370a08231146102b757806395d89b41146102e757610116565b806318160ddd116100e957806318160ddd146101b557806323b872dd146101d35780632f745c59146101ef57806342842e0e1461021f57806342966c681461023b57610116565b806301ffc9a71461011b57806306fdde031461014b578063081812fc14610169578063095ea7b314610199575b600080fd5b61013560048036038101906101309190612672565b6103b9565b6040516101429190613003565b60405180910390f35b6101536103cb565b604051610160919061301e565b60405180910390f35b610183600480360381019061017e919061275f565b61045d565b6040516101909190612f9c565b60405180910390f35b6101b360048036038101906101ae9190612636565b6104e2565b005b6101bd6105fa565b6040516101ca91906132a0565b60405180910390f35b6101ed60048036038101906101e89190612530565b610607565b005b61020960048036038101906102049190612636565b610667565b60405161021691906132a0565b60405180910390f35b61023960048036038101906102349190612530565b61070c565b005b6102556004803603810190610250919061275f565b61072c565b005b610271600480360381019061026c919061275f565b610788565b60405161027e91906132a0565b60405180910390f35b6102a1600480360381019061029c919061275f565b61081f565b6040516102ae9190612f9c565b60405180910390f35b6102d160048036038101906102cc91906124cb565b6108d1565b6040516102de91906132a0565b60405180910390f35b6102ef610989565b6040516102fc919061301e565b60405180910390f35b61031f600480360381019061031a91906125fa565b610a1b565b005b61033b6004803603810190610336919061257f565b610b9c565b005b6103576004803603810190610352919061275f565b610bfe565b604051610364919061301e565b60405180910390f35b610387600480360381019061038291906124f4565b610c10565b6040516103949190613003565b60405180910390f35b6103b760048036038101906103b291906126c4565b610ca4565b005b60006103c482610d52565b9050919050565b6060600080546103da906134e2565b80601f0160208091040260200160405190810160405280929190818152602001828054610406906134e2565b80156104535780601f1061042857610100808354040283529160200191610453565b820191906000526020600020905b81548152906001019060200180831161043657829003601f168201915b5050505050905090565b600061046882610dcc565b6104a7576040517f08c379a000000000000000000000000000000000000000000000000000000000815260040161049e906131c0565b60405180910390fd5b6004600083815260200190815260200160002060009054906101000a900473ffffffffffffffffffffffffffffffffffffffff169050919050565b60006104ed8261081f565b90508073ffffffffffffffffffffffffffffffffffffffff168373ffffffffffffffffffffffffffffffffffffffff16141561055e576040517f08c379a000000000000000000000000000000000000000000000000000000000815260040161055590613220565b60405180910390fd5b8073ffffffffffffffffffffffffffffffffffffffff1661057d610e38565b73ffffffffffffffffffffffffffffffffffffffff1614806105ac57506105ab816105a6610e38565b610c10565b5b6105eb576040517f08c379a00000000000000000000000000000000000000000000000000000000081526004016105e290613100565b60405180910390fd5b6105f58383610e40565b505050565b6000600880549050905090565b610618610612610e38565b82610ef9565b610657576040517f08c379a000000000000000000000000000000000000000000000000000000000815260040161064e90613240565b60405180910390fd5b610662838383610fd7565b505050565b6000610672836108d1565b82106106b3576040517f08c379a00000000000000000000000000000000000000000000000000000000081526004016106aa90613040565b60405180910390fd5b600660008473ffffffffffffffffffffffffffffffffffffffff1673ffffffffffffffffffffffffffffffffffffffff168152602001908152602001600020600083815260200190815260200160002054905092915050565b61072783838360405180602001604052806000815250610b9c565b505050565b61073d610737610e38565b82610ef9565b61077c576040517f08c379a000000000000000000000000000000000000000000000000000000000815260040161077390613280565b60405180910390fd5b61078581611233565b50565b60006107926105fa565b82106107d3576040517f08c379a00000000000000000000000000000000000000000000000000000000081526004016107ca90613260565b60405180910390fd5b6008828154811061080d577f4e487b7100000000000000000000000000000000000000000000000000000000600052603260045260246000fd5b90600052602060002001549050919050565b6000806002600084815260200190815260200160002060009054906101000a900473ffffffffffffffffffffffffffffffffffffffff169050600073ffffffffffffffffffffffffffffffffffffffff168173ffffffffffffffffffffffffffffffffffffffff1614156108c8576040517f08c379a00000000000000000000000000000000000000000000000000000000081526004016108bf90613140565b60405180910390fd5b80915050919050565b60008073ffffffffffffffffffffffffffffffffffffffff168273ffffffffffffffffffffffffffffffffffffffff161415610942576040517f08c379a000000000000000000000000000000000000000000000000000000000815260040161093990613120565b60405180910390fd5b600360008373ffffffffffffffffffffffffffffffffffffffff1673ffffffffffffffffffffffffffffffffffffffff168152602001908152602001600020549050919050565b606060018054610998906134e2565b80601f01602080910402602001604051908101604052809291908181526020018280546109c4906134e2565b8015610a115780601f106109e657610100808354040283529160200191610a11565b820191906000526020600020905b8154815290600101906020018083116109f457829003601f168201915b5050505050905090565b610a23610e38565b73ffffffffffffffffffffffffffffffffffffffff168273ffffffffffffffffffffffffffffffffffffffff161415610a91576040517f08c379a0000000000000000000000000000000000000000000000000000000008152600401610a88906130c0565b60405180910390fd5b8060056000610a9e610e38565b73ffffffffffffffffffffffffffffffffffffffff1673ffffffffffffffffffffffffffffffffffffffff16815260200190815260200160002060008473ffffffffffffffffffffffffffffffffffffffff1673ffffffffffffffffffffffffffffffffffffffff16815260200190815260200160002060006101000a81548160ff0219169083151502179055508173ffffffffffffffffffffffffffffffffffffffff16610b4b610e38565b73ffffffffffffffffffffffffffffffffffffffff167f17307eab39ab6107e8899845ad3d59bd9653f200f220920489ca2b5937696c3183604051610b909190613003565b60405180910390a35050565b610bad610ba7610e38565b83610ef9565b610bec576040517f08c379a0000000000000000000000000000000000000000000000000000000008152600401610be390613240565b60405180910390fd5b610bf88484848461123f565b50505050565b6060610c098261129b565b9050919050565b6000600560008473ffffffffffffffffffffffffffffffffffffffff1673ffffffffffffffffffffffffffffffffffffffff16815260200190815260200160002060008373ffffffffffffffffffffffffffffffffffffffff1673ffffffffffffffffffffffffffffffffffffffff16815260200190815260200160002060009054906101000a900460ff16905092915050565b610cae600b6113ed565b6000610cba600b611403565b90506000600c600083815260200190815260200160002090508585826000019190610ce6929190612232565b50838160010181905550610cfa8383611411565b610d488289898080601f016020809104026020016040519081016040528093929190818152602001838380828437600081840152601f19601f8201169050808301925050505050505061142f565b5050505050505050565b60007f780e9d63000000000000000000000000000000000000000000000000000000007bffffffffffffffffffffffffffffffffffffffffffffffffffffffff1916827bffffffffffffffffffffffffffffffffffffffffffffffffffffffff19161480610dc55750610dc4826114a3565b5b9050919050565b60008073ffffffffffffffffffffffffffffffffffffffff166002600084815260200190815260200160002060009054906101000a900473ffffffffffffffffffffffffffffffffffffffff1673ffffffffffffffffffffffffffffffffffffffff1614159050919050565b600033905090565b816004600083815260200190815260200160002060006101000a81548173ffffffffffffffffffffffffffffffffffffffff021916908373ffffffffffffffffffffffffffffffffffffffff160217905550808273ffffffffffffffffffffffffffffffffffffffff16610eb38361081f565b73ffffffffffffffffffffffffffffffffffffffff167f8c5be1e5ebec7d5bd14f71427d1e84f3dd0314c0f7b2291e5b200ac8c7c3b92560405160405180910390a45050565b6000610f0482610dcc565b610f43576040517f08c379a0000000000000000000000000000000000000000000000000000000008152600401610f3a906130e0565b60405180910390fd5b6000610f4e8361081f565b90508073ffffffffffffffffffffffffffffffffffffffff168473ffffffffffffffffffffffffffffffffffffffff161480610fbd57508373ffffffffffffffffffffffffffffffffffffffff16610fa58461045d565b73ffffffffffffffffffffffffffffffffffffffff16145b80610fce5750610fcd8185610c10565b5b91505092915050565b8273ffffffffffffffffffffffffffffffffffffffff16610ff78261081f565b73ffffffffffffffffffffffffffffffffffffffff161461104d576040517f08c379a0000000000000000000000000000000000000000000000000000000008152600401611044906131e0565b60405180910390fd5b600073ffffffffffffffffffffffffffffffffffffffff168273ffffffffffffffffffffffffffffffffffffffff1614156110bd576040517f08c379a00000000000000000000000000000000000000000000000000000000081526004016110b4906130a0565b60405180910390fd5b6110c8838383611585565b6110d3600082610e40565b6001600360008573ffffffffffffffffffffffffffffffffffffffff1673ffffffffffffffffffffffffffffffffffffffff168152602001908152602001600020600082825461112391906133e6565b925050819055506001600360008473ffffffffffffffffffffffffffffffffffffffff1673ffffffffffffffffffffffffffffffffffffffff168152602001908152602001600020600082825461117a919061335f565b92505081905550816002600083815260200190815260200160002060006101000a81548173ffffffffffffffffffffffffffffffffffffffff021916908373ffffffffffffffffffffffffffffffffffffffff160217905550808273ffffffffffffffffffffffffffffffffffffffff168473ffffffffffffffffffffffffffffffffffffffff167fddf252ad1be2c89b69c2b068fc378daa952ba7f163c4a11628f55a4df523b3ef60405160405180910390a4505050565b61123c81611595565b50565b61124a848484610fd7565b611256848484846115e8565b611295576040517f08c379a000000000000000000000000000000000000000000000000000000000815260040161128c90613060565b60405180910390fd5b50505050565b60606112a682610dcc565b6112e5576040517f08c379a00000000000000000000000000000000000000000000000000000000081526004016112dc906131a0565b60405180910390fd5b6000600a60008481526020019081526020016000208054611305906134e2565b80601f0160208091040260200160405190810160405280929190818152602001828054611331906134e2565b801561137e5780601f106113535761010080835404028352916020019161137e565b820191906000526020600020905b81548152906001019060200180831161136157829003601f168201915b50505050509050600061138f61177f565b90506000815114156113a55781925050506113e8565b6000825111156113da5780826040516020016113c2929190612f78565b604051602081830303815290604052925050506113e8565b6113e384611796565b925050505b919050565b6001816000016000828254019250508190555050565b600081600001549050919050565b61142b82826040518060200160405280600081525061183d565b5050565b61143882610dcc565b611477576040517f08c379a000000000000000000000000000000000000000000000000000000000815260040161146e90613160565b60405180910390fd5b80600a6000848152602001908152602001600020908051906020019061149e9291906122b8565b505050565b60007f80ac58cd000000000000000000000000000000000000000000000000000000007bffffffffffffffffffffffffffffffffffffffffffffffffffffffff1916827bffffffffffffffffffffffffffffffffffffffffffffffffffffffff1916148061156e57507f5b5e139f000000000000000000000000000000000000000000000000000000007bffffffffffffffffffffffffffffffffffffffffffffffffffffffff1916827bffffffffffffffffffffffffffffffffffffffffffffffffffffffff1916145b8061157e575061157d82611898565b5b9050919050565b611590838383611902565b505050565b61159e81611a16565b6000600a600083815260200190815260200160002080546115be906134e2565b9050146115e557600a600082815260200190815260200160002060006115e4919061233e565b5b50565b60006116098473ffffffffffffffffffffffffffffffffffffffff16611b27565b15611772578373ffffffffffffffffffffffffffffffffffffffff1663150b7a02611632610e38565b8786866040518563ffffffff1660e01b81526004016116549493929190612fb7565b602060405180830381600087803b15801561166e57600080fd5b505af192505050801561169f57506040513d601f19601f8201168201806040525081019061169c919061269b565b60015b611722573d80600081146116cf576040519150601f19603f3d011682016040523d82523d6000602084013e6116d4565b606091505b5060008151141561171a576040517f08c379a000000000000000000000000000000000000000000000000000000000815260040161171190613060565b60405180910390fd5b805181602001fd5b63150b7a0260e01b7bffffffffffffffffffffffffffffffffffffffffffffffffffffffff1916817bffffffffffffffffffffffffffffffffffffffffffffffffffffffff191614915050611777565b600190505b949350505050565b606060405180602001604052806000815250905090565b60606117a182610dcc565b6117e0576040517f08c379a00000000000000000000000000000000000000000000000000000000081526004016117d790613200565b60405180910390fd5b60006117ea61177f565b9050600081511161180a5760405180602001604052806000815250611835565b8061181484611b3a565b604051602001611825929190612f78565b6040516020818303038152906040525b915050919050565b6118478383611ce7565b61185460008484846115e8565b611893576040517f08c379a000000000000000000000000000000000000000000000000000000000815260040161188a90613060565b60405180910390fd5b505050565b60007f01ffc9a7000000000000000000000000000000000000000000000000000000007bffffffffffffffffffffffffffffffffffffffffffffffffffffffff1916827bffffffffffffffffffffffffffffffffffffffffffffffffffffffff1916149050919050565b61190d838383611eb5565b600073ffffffffffffffffffffffffffffffffffffffff168373ffffffffffffffffffffffffffffffffffffffff1614156119505761194b81611eba565b61198f565b8173ffffffffffffffffffffffffffffffffffffffff168373ffffffffffffffffffffffffffffffffffffffff161461198e5761198d8382611f03565b5b5b600073ffffffffffffffffffffffffffffffffffffffff168273ffffffffffffffffffffffffffffffffffffffff1614156119d2576119cd81612070565b611a11565b8273ffffffffffffffffffffffffffffffffffffffff168273ffffffffffffffffffffffffffffffffffffffff1614611a1057611a0f82826121b3565b5b5b505050565b6000611a218261081f565b9050611a2f81600084611585565b611a3a600083610e40565b6001600360008373ffffffffffffffffffffffffffffffffffffffff1673ffffffffffffffffffffffffffffffffffffffff1681526020019081526020016000206000828254611a8a91906133e6565b925050819055506002600083815260200190815260200160002060006101000a81549073ffffffffffffffffffffffffffffffffffffffff021916905581600073ffffffffffffffffffffffffffffffffffffffff168273ffffffffffffffffffffffffffffffffffffffff167fddf252ad1be2c89b69c2b068fc378daa952ba7f163c4a11628f55a4df523b3ef60405160405180910390a45050565b600080823b905060008111915050919050565b60606000821415611b82576040518060400160405280600181526020017f30000000000000000000000000000000000000000000000000000000000000008152509050611ce2565b600082905060005b60008214611bb4578080611b9d90613514565b915050600a82611bad91906133b5565b9150611b8a565b60008167ffffffffffffffff811115611bf6577f4e487b7100000000000000000000000000000000000000000000000000000000600052604160045260246000fd5b6040519080825280601f01601f191660200182016040528015611c285781602001600182028036833780820191505090505b5090505b60008514611cdb57600182611c4191906133e6565b9150600a85611c50919061355d565b6030611c5c919061335f565b60f81b818381518110611c98577f4e487b7100000000000000000000000000000000000000000000000000000000600052603260045260246000fd5b60200101907effffffffffffffffffffffffffffffffffffffffffffffffffffffffffffff1916908160001a905350600a85611cd491906133b5565b9450611c2c565b8093505050505b919050565b600073ffffffffffffffffffffffffffffffffffffffff168273ffffffffffffffffffffffffffffffffffffffff161415611d57576040517f08c379a0000000000000000000000000000000000000000000000000000000008152600401611d4e90613180565b60405180910390fd5b611d6081610dcc565b15611da0576040517f08c379a0000000000000000000000000000000000000000000000000000000008152600401611d9790613080565b60405180910390fd5b611dac60008383611585565b6001600360008473ffffffffffffffffffffffffffffffffffffffff1673ffffffffffffffffffffffffffffffffffffffff1681526020019081526020016000206000828254611dfc919061335f565b92505081905550816002600083815260200190815260200160002060006101000a81548173ffffffffffffffffffffffffffffffffffffffff021916908373ffffffffffffffffffffffffffffffffffffffff160217905550808273ffffffffffffffffffffffffffffffffffffffff16600073ffffffffffffffffffffffffffffffffffffffff167fddf252ad1be2c89b69c2b068fc378daa952ba7f163c4a11628f55a4df523b3ef60405160405180910390a45050565b505050565b6008805490506009600083815260200190815260200160002081905550600881908060018154018082558091505060019003906000526020600020016000909190919091505550565b60006001611f10846108d1565b611f1a91906133e6565b9050600060076000848152602001908152602001600020549050818114611fff576000600660008673ffffffffffffffffffffffffffffffffffffffff1673ffffffffffffffffffffffffffffffffffffffff168152602001908152602001600020600084815260200190815260200160002054905080600660008773ffffffffffffffffffffffffffffffffffffffff1673ffffffffffffffffffffffffffffffffffffffff168152602001908152602001600020600084815260200190815260200160002081905550816007600083815260200190815260200160002081905550505b6007600084815260200190815260200160002060009055600660008573ffffffffffffffffffffffffffffffffffffffff1673ffffffffffffffffffffffffffffffffffffffff16815260200190815260200160002060008381526020019081526020016000206000905550505050565b6000600160088054905061208491906133e6565b90506000600960008481526020019081526020016000205490506000600883815481106120da577f4e487b7100000000000000000000000000000000000000000000000000000000600052603260045260246000fd5b906000526020600020015490508060088381548110612122577f4e487b7100000000000000000000000000000000000000000000000000000000600052603260045260246000fd5b906000526020600020018190555081600960008381526020019081526020016000208190555060096000858152602001908152602001600020600090556008805480612197577f4e487b7100000000000000000000000000000000000000000000000000000000600052603160045260246000fd5b6001900381819060005260206000200160009055905550505050565b60006121be836108d1565b905081600660008573ffffffffffffffffffffffffffffffffffffffff1673ffffffffffffffffffffffffffffffffffffffff168152602001908152602001600020600083815260200190815260200160002081905550806007600084815260200190815260200160002081905550505050565b82805461223e906134e2565b90600052602060002090601f01602090048101928261226057600085556122a7565b82601f1061227957803560ff19168380011785556122a7565b828001600101855582156122a7579182015b828111156122a657823582559160200191906001019061228b565b5b5090506122b4919061237e565b5090565b8280546122c4906134e2565b90600052602060002090601f0160209004810192826122e6576000855561232d565b82601f106122ff57805160ff191683800117855561232d565b8280016001018555821561232d579182015b8281111561232c578251825591602001919060010190612311565b5b50905061233a919061237e565b5090565b50805461234a906134e2565b6000825580601f1061235c575061237b565b601f01602090049060005260206000209081019061237a919061237e565b5b50565b5b8082111561239757600081600090555060010161237f565b5090565b60006123ae6123a9846132ec565b6132bb565b9050828152602081018484840111156123c657600080fd5b6123d18482856134a0565b509392505050565b6000813590506123e88161365b565b92915050565b6000813590506123fd81613672565b92915050565b60008135905061241281613689565b92915050565b600081359050612427816136a0565b92915050565b60008151905061243c816136a0565b92915050565b600082601f83011261245357600080fd5b813561246384826020860161239b565b91505092915050565b60008083601f84011261247e57600080fd5b8235905067ffffffffffffffff81111561249757600080fd5b6020830191508360018202830111156124af57600080fd5b9250929050565b6000813590506124c5816136b7565b92915050565b6000602082840312156124dd57600080fd5b60006124eb848285016123d9565b91505092915050565b6000806040838503121561250757600080fd5b6000612515858286016123d9565b9250506020612526858286016123d9565b9150509250929050565b60008060006060848603121561254557600080fd5b6000612553868287016123d9565b9350506020612564868287016123d9565b9250506040612575868287016124b6565b9150509250925092565b6000806000806080858703121561259557600080fd5b60006125a3878288016123d9565b94505060206125b4878288016123d9565b93505060406125c5878288016124b6565b925050606085013567ffffffffffffffff8111156125e257600080fd5b6125ee87828801612442565b91505092959194509250565b6000806040838503121561260d57600080fd5b600061261b858286016123d9565b925050602061262c85828601612403565b9150509250929050565b6000806040838503121561264957600080fd5b6000612657858286016123d9565b9250506020612668858286016124b6565b9150509250929050565b60006020828403121561268457600080fd5b600061269284828501612418565b91505092915050565b6000602082840312156126ad57600080fd5b60006126bb8482850161242d565b91505092915050565b600080600080600080608087890312156126dd57600080fd5b600087013567ffffffffffffffff8111156126f757600080fd5b61270389828a0161246c565b9650965050602087013567ffffffffffffffff81111561272257600080fd5b61272e89828a0161246c565b9450945050604061274189828a016124b6565b925050606061275289828a016123ee565b9150509295509295509295565b60006020828403121561277157600080fd5b600061277f848285016124b6565b91505092915050565b6127918161341a565b82525050565b6127a08161343e565b82525050565b60006127b18261331c565b6127bb8185613332565b93506127cb8185602086016134af565b6127d48161364a565b840191505092915050565b60006127ea82613327565b6127f48185613343565b93506128048185602086016134af565b61280d8161364a565b840191505092915050565b600061282382613327565b61282d8185613354565b935061283d8185602086016134af565b80840191505092915050565b6000612856602b83613343565b91507f455243373231456e756d657261626c653a206f776e657220696e646578206f7560008301527f74206f6620626f756e64730000000000000000000000000000000000000000006020830152604082019050919050565b60006128bc603283613343565b91507f4552433732313a207472616e7366657220746f206e6f6e20455243373231526560008301527f63656976657220696d706c656d656e74657200000000000000000000000000006020830152604082019050919050565b6000612922601c83613343565b91507f4552433732313a20746f6b656e20616c7265616479206d696e746564000000006000830152602082019050919050565b6000612962602483613343565b91507f4552433732313a207472616e7366657220746f20746865207a65726f2061646460008301527f72657373000000000000000000000000000000000000000000000000000000006020830152604082019050919050565b60006129c8601983613343565b91507f4552433732313a20617070726f766520746f2063616c6c6572000000000000006000830152602082019050919050565b6000612a08602c83613343565b91507f4552433732313a206f70657261746f7220717565727920666f72206e6f6e657860008301527f697374656e7420746f6b656e00000000000000000000000000000000000000006020830152604082019050919050565b6000612a6e603883613343565b91507f4552433732313a20617070726f76652063616c6c6572206973206e6f74206f7760008301527f6e6572206e6f7220617070726f76656420666f7220616c6c00000000000000006020830152604082019050919050565b6000612ad4602a83613343565b91507f4552433732313a2062616c616e636520717565727920666f7220746865207a6560008301527f726f2061646472657373000000000000000000000000000000000000000000006020830152604082019050919050565b6000612b3a602983613343565b91507f4552433732313a206f776e657220717565727920666f72206e6f6e657869737460008301527f656e7420746f6b656e00000000000000000000000000000000000000000000006020830152604082019050919050565b6000612ba0602e83613343565b91507f45524337323155524953746f726167653a2055524920736574206f66206e6f6e60008301527f6578697374656e7420746f6b656e0000000000000000000000000000000000006020830152604082019050919050565b6000612c06602083613343565b91507f4552433732313a206d696e7420746f20746865207a65726f20616464726573736000830152602082019050919050565b6000612c46603183613343565b91507f45524337323155524953746f726167653a2055524920717565727920666f722060008301527f6e6f6e6578697374656e7420746f6b656e0000000000000000000000000000006020830152604082019050919050565b6000612cac602c83613343565b91507f4552433732313a20617070726f76656420717565727920666f72206e6f6e657860008301527f697374656e7420746f6b656e00000000000000000000000000000000000000006020830152604082019050919050565b6000612d12602983613343565b91507f4552433732313a207472616e73666572206f6620746f6b656e2074686174206960008301527f73206e6f74206f776e00000000000000000000000000000000000000000000006020830152604082019050919050565b6000612d78602f83613343565b91507f4552433732314d657461646174613a2055524920717565727920666f72206e6f60008301527f6e6578697374656e7420746f6b656e00000000000000000000000000000000006020830152604082019050919050565b6000612dde602183613343565b91507f4552433732313a20617070726f76616c20746f2063757272656e74206f776e6560008301527f72000000000000000000000000000000000000000000000000000000000000006020830152604082019050919050565b6000612e44603183613343565b91507f4552433732313a207472616e736665722063616c6c6572206973206e6f74206f60008301527f776e6572206e6f7220617070726f7665640000000000000000000000000000006020830152604082019050919050565b6000612eaa602c83613343565b91507f455243373231456e756d657261626c653a20676c6f62616c20696e646578206f60008301527f7574206f6620626f756e647300000000000000000000000000000000000000006020830152604082019050919050565b6000612f10603083613343565b91507f4552433732314275726e61626c653a2063616c6c6572206973206e6f74206f7760008301527f6e6572206e6f7220617070726f766564000000000000000000000000000000006020830152604082019050919050565b612f7281613496565b82525050565b6000612f848285612818565b9150612f908284612818565b91508190509392505050565b6000602082019050612fb16000830184612788565b92915050565b6000608082019050612fcc6000830187612788565b612fd96020830186612788565b612fe66040830185612f69565b8181036060830152612ff881846127a6565b905095945050505050565b60006020820190506130186000830184612797565b92915050565b6000602082019050818103600083015261303881846127df565b905092915050565b6000602082019050818103600083015261305981612849565b9050919050565b60006020820190508181036000830152613079816128af565b9050919050565b6000602082019050818103600083015261309981612915565b9050919050565b600060208201905081810360008301526130b981612955565b9050919050565b600060208201905081810360008301526130d9816129bb565b9050919050565b600060208201905081810360008301526130f9816129fb565b9050919050565b6000602082019050818103600083015261311981612a61565b9050919050565b6000602082019050818103600083015261313981612ac7565b9050919050565b6000602082019050818103600083015261315981612b2d565b9050919050565b6000602082019050818103600083015261317981612b93565b9050919050565b6000602082019050818103600083015261319981612bf9565b9050919050565b600060208201905081810360008301526131b981612c39565b9050919050565b600060208201905081810360008301526131d981612c9f565b9050919050565b600060208201905081810360008301526131f981612d05565b9050919050565b6000602082019050818103600083015261321981612d6b565b9050919050565b6000602082019050818103600083015261323981612dd1565b9050919050565b6000602082019050818103600083015261325981612e37565b9050919050565b6000602082019050818103600083015261327981612e9d565b9050919050565b6000602082019050818103600083015261329981612f03565b9050919050565b60006020820190506132b56000830184612f69565b92915050565b6000604051905081810181811067ffffffffffffffff821117156132e2576132e161361b565b5b8060405250919050565b600067ffffffffffffffff8211156133075761330661361b565b5b601f19601f8301169050602081019050919050565b600081519050919050565b600081519050919050565b600082825260208201905092915050565b600082825260208201905092915050565b600081905092915050565b600061336a82613496565b915061337583613496565b9250827fffffffffffffffffffffffffffffffffffffffffffffffffffffffffffffffff038211156133aa576133a961358e565b5b828201905092915050565b60006133c082613496565b91506133cb83613496565b9250826133db576133da6135bd565b5b828204905092915050565b60006133f182613496565b91506133fc83613496565b92508282101561340f5761340e61358e565b5b828203905092915050565b600061342582613476565b9050919050565b600061343782613476565b9050919050565b60008115159050919050565b60007fffffffff0000000000000000000000000000000000000000000000000000000082169050919050565b600073ffffffffffffffffffffffffffffffffffffffff82169050919050565b6000819050919050565b82818337600083830152505050565b60005b838110156134cd5780820151818401526020810190506134b2565b838111156134dc576000848401525b50505050565b600060028204905060018216806134fa57607f821691505b6020821081141561350e5761350d6135ec565b5b50919050565b600061351f82613496565b91507fffffffffffffffffffffffffffffffffffffffffffffffffffffffffffffffff8214156135525761355161358e565b5b600182019050919050565b600061356882613496565b915061357383613496565b925082613583576135826135bd565b5b828206905092915050565b7f4e487b7100000000000000000000000000000000000000000000000000000000600052601160045260246000fd5b7f4e487b7100000000000000000000000000000000000000000000000000000000600052601260045260246000fd5b7f4e487b7100000000000000000000000000000000000000000000000000000000600052602260045260246000fd5b7f4e487b7100000000000000000000000000000000000000000000000000000000600052604160045260246000fd5b6000601f19601f8301169050919050565b6136648161341a565b811461366f57600080fd5b50565b61367b8161342c565b811461368657600080fd5b50565b6136928161343e565b811461369d57600080fd5b50565b6136a98161344a565b81146136b457600080fd5b50565b6136c081613496565b81146136cb57600080fd5b5056fea26469706673582212207a4883cacf2f63979b663b72fe41765f4e0c270f94eb64c2c72121803d15482064736f6c63430008000033",
    "immutableReferences": {},
    "source": "// SPDX-License-Identifier: MIT\npragma solidity ^0.8.0;\n\nimport \"@openzeppelin/contracts/token/ERC721/ERC721.sol\";\nimport \"@openzeppelin/contracts/token/ERC721/extensions/ERC721Enumerable.sol\";\nimport \"@openzeppelin/contracts/token/ERC721/extensions/ERC721Burnable.sol\";\nimport \"@openzeppelin/contracts/token/ERC721/extensions/ERC721URIStorage.sol\";\nimport \"@openzeppelin/contracts/utils/Counters.sol\";\n\ncontract OpenAR is ERC721(\"OpenAR\", \"ARNFT\"), ERC721Enumerable, ERC721Burnable, ERC721URIStorage {\n  using Counters for Counters.Counter;\n  Counters.Counter private _tokenIds;\n\n  struct AssetInfo {\n      string assetURI;\n      uint256 price;    // Price in wei\n      uint256 purchasedLicenceCounter;\n      mapping(address => bool) purchasedLicences;\n  }\n\n  mapping(uint256 => AssetInfo) private _assetInfo;\n\n  event LicencePurchased(string assetURI, uint256 amount);\n\n  function mint (string calldata _tokenURI, string calldata _assetURI, uint256 price, address payable owner) external {\n    _tokenIds.increment();\n    uint256 newTokenId = _tokenIds.current();\n    AssetInfo storage newAssetInfo = _assetInfo[newTokenId];\n    newAssetInfo.assetURI = _assetURI;\n    newAssetInfo.price = price;\n    _safeMint(owner, newTokenId);\n    _setTokenURI (newTokenId, _tokenURI);\n  }\n  \n\n// function makeArNFT() public onlyOwner {\n//   uint256 newItemId = _tokenIds.current();\n\n//   _safeMint(msg.sender, newItemId);\n\n//   _tokenIds.increment();\n\n// }\n\n  // @notice Conforms to the ERC721 metadata extension - https://eips.ethereum.org/EIPS/eip-721\n  function tokenURI(uint256 tokenId) public view override(ERC721, ERC721URIStorage) returns (string memory) {\n    return super.tokenURI(tokenId);\n  }\n\n  // As ERC721, ERC721Enumerable, and include _beforeTokenTransfer we need to override all\n  function _beforeTokenTransfer(address from, address to, uint256 amount) internal override(ERC721, ERC721Enumerable) {\n    super._beforeTokenTransfer(from, to, amount);\n  }\n\n  // As ERC721 and ERC721Enumerable include supportsInterface we need to override both.\n  function supportsInterface(bytes4 interfaceId) public view override(ERC721, ERC721Enumerable) returns (bool) {\n        return super.supportsInterface(interfaceId);\n  }\n\n  // As ERC721 and ERC721URIStorage include supportsInterface we need to override both.\n  function _burn(uint256 tokenId) internal override (ERC721, ERC721URIStorage)  {\n    super._burn(tokenId);\n  }\n\n}",
    "sourcePath": "/Users/tylerwoolcott/Dev/final-project-test/contracts/OpenAR.sol",
    "compiler": {
        "name": "solc",
        "version": "0.8.0+commit.c7dfd78e.Emscripten.clang"
    },
    "schemaVersion": "3.4.3",
    "updatedAt": "2021-11-05T11:26:35.786Z",
    "networkType": "ethereum",
    "devdoc": {
        "kind": "dev",
        "methods": {
            "approve(address,uint256)": {
                "details": "See {IERC721-approve}."
            },
            "balanceOf(address)": {
                "details": "See {IERC721-balanceOf}."
            },
            "burn(uint256)": {
                "details": "Burns `tokenId`. See {ERC721-_burn}. Requirements: - The caller must own `tokenId` or be an approved operator."
            },
            "getApproved(uint256)": {
                "details": "See {IERC721-getApproved}."
            },
            "isApprovedForAll(address,address)": {
                "details": "See {IERC721-isApprovedForAll}."
            },
            "name()": {
                "details": "See {IERC721Metadata-name}."
            },
            "ownerOf(uint256)": {
                "details": "See {IERC721-ownerOf}."
            },
            "safeTransferFrom(address,address,uint256)": {
                "details": "See {IERC721-safeTransferFrom}."
            },
            "safeTransferFrom(address,address,uint256,bytes)": {
                "details": "See {IERC721-safeTransferFrom}."
            },
            "setApprovalForAll(address,bool)": {
                "details": "See {IERC721-setApprovalForAll}."
            },
            "symbol()": {
                "details": "See {IERC721Metadata-symbol}."
            },
            "tokenByIndex(uint256)": {
                "details": "See {IERC721Enumerable-tokenByIndex}."
            },
            "tokenOfOwnerByIndex(address,uint256)": {
                "details": "See {IERC721Enumerable-tokenOfOwnerByIndex}."
            },
            "totalSupply()": {
                "details": "See {IERC721Enumerable-totalSupply}."
            },
            "transferFrom(address,address,uint256)": {
                "details": "See {IERC721-transferFrom}."
            }
        },
        "version": 1
    },
    "userdoc": {
        "kind": "user",
        "methods": {},
        "version": 1
    }
}