{
    "contractName": "Oracle",
    "abi": [
        {
            "inputs": [
                {
                    "internalType": "address",
                    "name": "_link",
                    "type": "address"
                }
            ],
            "stateMutability": "nonpayable",
            "type": "constructor"
        },
        {
            "anonymous": false,
            "inputs": [
                {
                    "indexed": true,
                    "internalType": "bytes32",
                    "name": "requestId",
                    "type": "bytes32"
                }
            ],
            "name": "CancelOracleRequest",
            "type": "event"
        },
        {
            "anonymous": false,
            "inputs": [
                {
                    "indexed": true,
                    "internalType": "bytes32",
                    "name": "specId",
                    "type": "bytes32"
                },
                {
                    "indexed": false,
                    "internalType": "address",
                    "name": "requester",
                    "type": "address"
                },
                {
                    "indexed": false,
                    "internalType": "bytes32",
                    "name": "requestId",
                    "type": "bytes32"
                },
                {
                    "indexed": false,
                    "internalType": "uint256",
                    "name": "payment",
                    "type": "uint256"
                },
                {
                    "indexed": false,
                    "internalType": "address",
                    "name": "callbackAddr",
                    "type": "address"
                },
                {
                    "indexed": false,
                    "internalType": "bytes4",
                    "name": "callbackFunctionId",
                    "type": "bytes4"
                },
                {
                    "indexed": false,
                    "internalType": "uint256",
                    "name": "cancelExpiration",
                    "type": "uint256"
                },
                {
                    "indexed": false,
                    "internalType": "uint256",
                    "name": "dataVersion",
                    "type": "uint256"
                },
                {
                    "indexed": false,
                    "internalType": "bytes",
                    "name": "data",
                    "type": "bytes"
                }
            ],
            "name": "OracleRequest",
            "type": "event"
        },
        {
            "anonymous": false,
            "inputs": [
                {
                    "indexed": true,
                    "internalType": "address",
                    "name": "previousOwner",
                    "type": "address"
                },
                {
                    "indexed": true,
                    "internalType": "address",
                    "name": "newOwner",
                    "type": "address"
                }
            ],
            "name": "OwnershipTransferred",
            "type": "event"
        },
        {
            "inputs": [],
            "name": "EXPIRY_TIME",
            "outputs": [
                {
                    "internalType": "uint256",
                    "name": "",
                    "type": "uint256"
                }
            ],
            "stateMutability": "view",
            "type": "function"
        },
        {
            "inputs": [],
            "name": "isOwner",
            "outputs": [
                {
                    "internalType": "bool",
                    "name": "",
                    "type": "bool"
                }
            ],
            "stateMutability": "view",
            "type": "function"
        },
        {
            "inputs": [
                {
                    "internalType": "address",
                    "name": "_sender",
                    "type": "address"
                },
                {
                    "internalType": "uint256",
                    "name": "_amount",
                    "type": "uint256"
                },
                {
                    "internalType": "bytes",
                    "name": "_data",
                    "type": "bytes"
                }
            ],
            "name": "onTokenTransfer",
            "outputs": [],
            "stateMutability": "nonpayable",
            "type": "function"
        },
        {
            "inputs": [],
            "name": "owner",
            "outputs": [
                {
                    "internalType": "address",
                    "name": "",
                    "type": "address"
                }
            ],
            "stateMutability": "view",
            "type": "function"
        },
        {
            "inputs": [
                {
                    "internalType": "address",
                    "name": "newOwner",
                    "type": "address"
                }
            ],
            "name": "transferOwnership",
            "outputs": [],
            "stateMutability": "nonpayable",
            "type": "function"
        },
        {
            "inputs": [
                {
                    "internalType": "address",
                    "name": "_sender",
                    "type": "address"
                },
                {
                    "internalType": "uint256",
                    "name": "_payment",
                    "type": "uint256"
                },
                {
                    "internalType": "bytes32",
                    "name": "_specId",
                    "type": "bytes32"
                },
                {
                    "internalType": "address",
                    "name": "_callbackAddress",
                    "type": "address"
                },
                {
                    "internalType": "bytes4",
                    "name": "_callbackFunctionId",
                    "type": "bytes4"
                },
                {
                    "internalType": "uint256",
                    "name": "_nonce",
                    "type": "uint256"
                },
                {
                    "internalType": "uint256",
                    "name": "_dataVersion",
                    "type": "uint256"
                },
                {
                    "internalType": "bytes",
                    "name": "_data",
                    "type": "bytes"
                }
            ],
            "name": "oracleRequest",
            "outputs": [],
            "stateMutability": "nonpayable",
            "type": "function"
        },
        {
            "inputs": [
                {
                    "internalType": "bytes32",
                    "name": "_requestId",
                    "type": "bytes32"
                },
                {
                    "internalType": "uint256",
                    "name": "_payment",
                    "type": "uint256"
                },
                {
                    "internalType": "address",
                    "name": "_callbackAddress",
                    "type": "address"
                },
                {
                    "internalType": "bytes4",
                    "name": "_callbackFunctionId",
                    "type": "bytes4"
                },
                {
                    "internalType": "uint256",
                    "name": "_expiration",
                    "type": "uint256"
                },
                {
                    "internalType": "bytes32",
                    "name": "_data",
                    "type": "bytes32"
                }
            ],
            "name": "fulfillOracleRequest",
            "outputs": [
                {
                    "internalType": "bool",
                    "name": "",
                    "type": "bool"
                }
            ],
            "stateMutability": "nonpayable",
            "type": "function"
        },
        {
            "inputs": [
                {
                    "internalType": "address",
                    "name": "_node",
                    "type": "address"
                }
            ],
            "name": "getAuthorizationStatus",
            "outputs": [
                {
                    "internalType": "bool",
                    "name": "",
                    "type": "bool"
                }
            ],
            "stateMutability": "view",
            "type": "function"
        },
        {
            "inputs": [
                {
                    "internalType": "address",
                    "name": "_node",
                    "type": "address"
                },
                {
                    "internalType": "bool",
                    "name": "_allowed",
                    "type": "bool"
                }
            ],
            "name": "setFulfillmentPermission",
            "outputs": [],
            "stateMutability": "nonpayable",
            "type": "function"
        },
        {
            "inputs": [
                {
                    "internalType": "address",
                    "name": "_recipient",
                    "type": "address"
                },
                {
                    "internalType": "uint256",
                    "name": "_amount",
                    "type": "uint256"
                }
            ],
            "name": "withdraw",
            "outputs": [],
            "stateMutability": "nonpayable",
            "type": "function"
        },
        {
            "inputs": [],
            "name": "withdrawable",
            "outputs": [
                {
                    "internalType": "uint256",
                    "name": "",
                    "type": "uint256"
                }
            ],
            "stateMutability": "view",
            "type": "function"
        },
        {
            "inputs": [
                {
                    "internalType": "bytes32",
                    "name": "_requestId",
                    "type": "bytes32"
                },
                {
                    "internalType": "uint256",
                    "name": "_payment",
                    "type": "uint256"
                },
                {
                    "internalType": "bytes4",
                    "name": "_callbackFunc",
                    "type": "bytes4"
                },
                {
                    "internalType": "uint256",
                    "name": "_expiration",
                    "type": "uint256"
                }
            ],
            "name": "cancelOracleRequest",
            "outputs": [],
            "stateMutability": "nonpayable",
            "type": "function"
        },
        {
            "inputs": [],
            "name": "getChainlinkToken",
            "outputs": [
                {
                    "internalType": "address",
                    "name": "",
                    "type": "address"
                }
            ],
            "stateMutability": "view",
            "type": "function"
        }
    ],
    "bytecode": "0x6080604052600160045534801561001557600080fd5b50604051611e6e380380611e6e8339818101604052602081101561003857600080fd5b8101908080519060200190929190505050336000806101000a81548173ffffffffffffffffffffffffffffffffffffffff021916908373ffffffffffffffffffffffffffffffffffffffff1602179055506000809054906101000a900473ffffffffffffffffffffffffffffffffffffffff1673ffffffffffffffffffffffffffffffffffffffff16600073ffffffffffffffffffffffffffffffffffffffff167f8be0079c531659141344cd1fd0a4f28419497f9722a3daafe3b4186f6b6457e060405160405180910390a380600160006101000a81548173ffffffffffffffffffffffffffffffffffffffff021916908373ffffffffffffffffffffffffffffffffffffffff16021790555050611d18806101566000396000f3fe608060405234801561001057600080fd5b50600436106100cf5760003560e01c80637fcd56db1161008c578063a4c0ed3611610066578063a4c0ed3614610439578063d3e9c3141461051e578063f2fde38b1461057a578063f3fef3a3146105be576100cf565b80637fcd56db1461037d5780638da5cb5b146103cd5780638f32d59b14610417576100cf565b8063165d35e1146100d4578063404299461461011e5780634ab0d190146102295780634b602282146102d657806350188301146102f45780636ee4d55314610312575b600080fd5b6100dc61060c565b604051808273ffffffffffffffffffffffffffffffffffffffff1673ffffffffffffffffffffffffffffffffffffffff16815260200191505060405180910390f35b610227600480360361010081101561013557600080fd5b81019080803573ffffffffffffffffffffffffffffffffffffffff1690602001909291908035906020019092919080359060200190929190803573ffffffffffffffffffffffffffffffffffffffff16906020019092919080357bffffffffffffffffffffffffffffffffffffffffffffffffffffffff191690602001909291908035906020019092919080359060200190929190803590602001906401000000008111156101e357600080fd5b8201836020820111156101f557600080fd5b8035906020019184600183028401116401000000008311171561021757600080fd5b9091929391929390505050610636565b005b6102bc600480360360c081101561023f57600080fd5b810190808035906020019092919080359060200190929190803573ffffffffffffffffffffffffffffffffffffffff16906020019092919080357bffffffffffffffffffffffffffffffffffffffffffffffffffffffff191690602001909291908035906020019092919080359060200190929190505050610aac565b604051808215151515815260200191505060405180910390f35b6102de610f3b565b6040518082815260200191505060405180910390f35b6102fc610f41565b6040518082815260200191505060405180910390f35b61037b6004803603608081101561032857600080fd5b81019080803590602001909291908035906020019092919080357bffffffffffffffffffffffffffffffffffffffffffffffffffffffff1916906020019092919080359060200190929190505050610fd8565b005b6103cb6004803603604081101561039357600080fd5b81019080803573ffffffffffffffffffffffffffffffffffffffff1690602001909291908035151590602001909291905050506112bb565b005b6103d5611390565b604051808273ffffffffffffffffffffffffffffffffffffffff1673ffffffffffffffffffffffffffffffffffffffff16815260200191505060405180910390f35b61041f6113b9565b604051808215151515815260200191505060405180910390f35b61051c6004803603606081101561044f57600080fd5b81019080803573ffffffffffffffffffffffffffffffffffffffff169060200190929190803590602001909291908035906020019064010000000081111561049657600080fd5b8201836020820111156104a857600080fd5b803590602001918460018302840111640100000000831117156104ca57600080fd5b91908080601f016020809104026020016040519081016040528093929190818152602001838380828437600081840152601f19601f820116905080830192505050505050509192919290505050611410565b005b6105606004803603602081101561053457600080fd5b81019080803573ffffffffffffffffffffffffffffffffffffffff169060200190929190505050611739565b604051808215151515815260200191505060405180910390f35b6105bc6004803603602081101561059057600080fd5b81019080803573ffffffffffffffffffffffffffffffffffffffff16906020019092919050505061178f565b005b61060a600480360360408110156105d457600080fd5b81019080803573ffffffffffffffffffffffffffffffffffffffff16906020019092919080359060200190929190505050611815565b005b6000600160009054906101000a900473ffffffffffffffffffffffffffffffffffffffff16905090565b61063e61060c565b73ffffffffffffffffffffffffffffffffffffffff163373ffffffffffffffffffffffffffffffffffffffff16146106de576040517f08c379a00000000000000000000000000000000000000000000000000000000081526004018080602001828103825260138152602001807f4d75737420757365204c494e4b20746f6b656e0000000000000000000000000081525060200191505060405180910390fd5b85600160009054906101000a900473ffffffffffffffffffffffffffffffffffffffff1673ffffffffffffffffffffffffffffffffffffffff168173ffffffffffffffffffffffffffffffffffffffff1614156107a3576040517f08c379a00000000000000000000000000000000000000000000000000000000081526004018080602001828103825260178152602001807f43616e6e6f742063616c6c6261636b20746f204c494e4b00000000000000000081525060200191505060405180910390fd5b60008a86604051602001808373ffffffffffffffffffffffffffffffffffffffff1673ffffffffffffffffffffffffffffffffffffffff1660601b8152601401828152602001925050506040516020818303038152906040528051906020012090506000801b600260008381526020019081526020016000205414610890576040517f08c379a00000000000000000000000000000000000000000000000000000000081526004018080602001828103825260148152602001807f4d75737420757365206120756e6971756520494400000000000000000000000081525060200191505060405180910390fd5b60006108a761012c42611a0890919063ffffffff16565b90508a898983604051602001808581526020018473ffffffffffffffffffffffffffffffffffffffff1673ffffffffffffffffffffffffffffffffffffffff1660601b8152601401837bffffffffffffffffffffffffffffffffffffffffffffffffffffffff19167bffffffffffffffffffffffffffffffffffffffffffffffffffffffff19168152600401828152602001945050505050604051602081830303815290604052805190602001206002600084815260200190815260200160002081905550897fd8d7ecc4800d25fa53ce0372f13a416d98907a7ef3d8d3bdd79cf4fe75529c658d848e8d8d878d8d8d604051808a73ffffffffffffffffffffffffffffffffffffffff1673ffffffffffffffffffffffffffffffffffffffff1681526020018981526020018881526020018773ffffffffffffffffffffffffffffffffffffffff1673ffffffffffffffffffffffffffffffffffffffff168152602001867bffffffffffffffffffffffffffffffffffffffffffffffffffffffff19167bffffffffffffffffffffffffffffffffffffffffffffffffffffffff19168152602001858152602001848152602001806020018281038252848482818152602001925080828437600081840152601f19601f8201169050808301925050509a505050505050505050505060405180910390a2505050505050505050505050565b6000600360003373ffffffffffffffffffffffffffffffffffffffff1673ffffffffffffffffffffffffffffffffffffffff16815260200190815260200160002060009054906101000a900460ff1680610b385750610b09611390565b73ffffffffffffffffffffffffffffffffffffffff163373ffffffffffffffffffffffffffffffffffffffff16145b610b8d576040517f08c379a000000000000000000000000000000000000000000000000000000000815260040180806020018281038252602a815260200180611cb9602a913960400191505060405180910390fd5b866000801b60026000838152602001908152602001600020541415610c1a576040517f08c379a000000000000000000000000000000000000000000000000000000000815260040180806020018281038252601b8152602001807f4d757374206861766520612076616c696420726571756573744964000000000081525060200191505060405180910390fd5b600087878787604051602001808581526020018473ffffffffffffffffffffffffffffffffffffffff1673ffffffffffffffffffffffffffffffffffffffff1660601b8152601401837bffffffffffffffffffffffffffffffffffffffffffffffffffffffff19167bffffffffffffffffffffffffffffffffffffffffffffffffffffffff1916815260040182815260200194505050505060405160208183030381529060405280519060200120905080600260008b81526020019081526020016000205414610d52576040517f08c379a000000000000000000000000000000000000000000000000000000000815260040180806020018281038252601e8152602001807f506172616d7320646f206e6f74206d617463682072657175657374204944000081525060200191505060405180910390fd5b610d6788600454611a0890919063ffffffff16565b600481905550600260008a81526020019081526020016000206000905562061a805a1015610dfd576040517f08c379a00000000000000000000000000000000000000000000000000000000081526004018080602001828103825260208152602001807f4d7573742070726f7669646520636f6e73756d657220656e6f7567682067617381525060200191505060405180910390fd5b60008773ffffffffffffffffffffffffffffffffffffffff16878b876040516024018083815260200182815260200192505050604051602081830303815290604052907bffffffffffffffffffffffffffffffffffffffffffffffffffffffff19166020820180517bffffffffffffffffffffffffffffffffffffffffffffffffffffffff83818316178352505050506040518082805190602001908083835b60208310610ec05780518252602082019150602081019050602083039250610e9d565b6001836020036101000a0380198251168184511680821785525050505050509050019150506000604051808303816000865af19150503d8060008114610f22576040519150601f19603f3d011682016040523d82523d6000602084013e610f27565b606091505b505090508093505050509695505050505050565b61012c81565b6000610f4b6113b9565b610fbd576040517f08c379a00000000000000000000000000000000000000000000000000000000081526004018080602001828103825260208152602001807f4f776e61626c653a2063616c6c6572206973206e6f7420746865206f776e657281525060200191505060405180910390fd5b610fd36001600454611a9090919063ffffffff16565b905090565b600083338484604051602001808581526020018473ffffffffffffffffffffffffffffffffffffffff1673ffffffffffffffffffffffffffffffffffffffff1660601b8152601401837bffffffffffffffffffffffffffffffffffffffffffffffffffffffff19167bffffffffffffffffffffffffffffffffffffffffffffffffffffffff1916815260040182815260200194505050505060405160208183030381529060405280519060200120905060026000868152602001908152602001600020548114611110576040517f08c379a000000000000000000000000000000000000000000000000000000000815260040180806020018281038252601e8152602001807f506172616d7320646f206e6f74206d617463682072657175657374204944000081525060200191505060405180910390fd5b42821115611186576040517f08c379a00000000000000000000000000000000000000000000000000000000081526004018080602001828103825260168152602001807f52657175657374206973206e6f7420657870697265640000000000000000000081525060200191505060405180910390fd5b6002600086815260200190815260200160002060009055847fa7842b9ec549398102c0d91b1b9919b2f20558aefdadf57528a95c6cd3292e9360405160405180910390a2600160009054906101000a900473ffffffffffffffffffffffffffffffffffffffff1673ffffffffffffffffffffffffffffffffffffffff1663a9059cbb33866040518363ffffffff1660e01b8152600401808373ffffffffffffffffffffffffffffffffffffffff1673ffffffffffffffffffffffffffffffffffffffff16815260200182815260200192505050602060405180830381600087803b15801561127357600080fd5b505af1158015611287573d6000803e3d6000fd5b505050506040513d602081101561129d57600080fd5b81019080805190602001909291905050506112b457fe5b5050505050565b6112c36113b9565b611335576040517f08c379a00000000000000000000000000000000000000000000000000000000081526004018080602001828103825260208152602001807f4f776e61626c653a2063616c6c6572206973206e6f7420746865206f776e657281525060200191505060405180910390fd5b80600360008473ffffffffffffffffffffffffffffffffffffffff1673ffffffffffffffffffffffffffffffffffffffff16815260200190815260200160002060006101000a81548160ff0219169083151502179055505050565b60008060009054906101000a900473ffffffffffffffffffffffffffffffffffffffff16905090565b60008060009054906101000a900473ffffffffffffffffffffffffffffffffffffffff1673ffffffffffffffffffffffffffffffffffffffff163373ffffffffffffffffffffffffffffffffffffffff1614905090565b61141861060c565b73ffffffffffffffffffffffffffffffffffffffff163373ffffffffffffffffffffffffffffffffffffffff16146114b8576040517f08c379a00000000000000000000000000000000000000000000000000000000081526004018080602001828103825260138152602001807f4d75737420757365204c494e4b20746f6b656e0000000000000000000000000081525060200191505060405180910390fd5b80600260200260040181511015611537576040517f08c379a00000000000000000000000000000000000000000000000000000000081526004018080602001828103825260168152602001807f496e76616c69642072657175657374206c656e6774680000000000000000000081525060200191505060405180910390fd5b81600060208201519050634042994660e01b7bffffffffffffffffffffffffffffffffffffffffffffffffffffffff1916817bffffffffffffffffffffffffffffffffffffffffffffffffffffffff1916146115fb576040517f08c379a000000000000000000000000000000000000000000000000000000000815260040180806020018281038252601e8152602001807f4d757374207573652077686974656c69737465642066756e6374696f6e73000081525060200191505060405180910390fd5b85602485015284604485015260003073ffffffffffffffffffffffffffffffffffffffff16856040518082805190602001908083835b602083106116545780518252602082019150602081019050602083039250611631565b6001836020036101000a038019825116818451168082178552505050505050905001915050600060405180830381855af49150503d80600081146116b4576040519150601f19603f3d011682016040523d82523d6000602084013e6116b9565b606091505b5050905080611730576040517f08c379a00000000000000000000000000000000000000000000000000000000081526004018080602001828103825260188152602001807f556e61626c6520746f206372656174652072657175657374000000000000000081525060200191505060405180910390fd5b50505050505050565b6000600360008373ffffffffffffffffffffffffffffffffffffffff1673ffffffffffffffffffffffffffffffffffffffff16815260200190815260200160002060009054906101000a900460ff169050919050565b6117976113b9565b611809576040517f08c379a00000000000000000000000000000000000000000000000000000000081526004018080602001828103825260208152602001807f4f776e61626c653a2063616c6c6572206973206e6f7420746865206f776e657281525060200191505060405180910390fd5b61181281611b19565b50565b61181d6113b9565b61188f576040517f08c379a00000000000000000000000000000000000000000000000000000000081526004018080602001828103825260208152602001807f4f776e61626c653a2063616c6c6572206973206e6f7420746865206f776e657281525060200191505060405180910390fd5b806118a4600182611a0890919063ffffffff16565b60045410156118fe576040517f08c379a0000000000000000000000000000000000000000000000000000000008152600401808060200182810382526035815260200180611c846035913960400191505060405180910390fd5b61191382600454611a9090919063ffffffff16565b600481905550600160009054906101000a900473ffffffffffffffffffffffffffffffffffffffff1673ffffffffffffffffffffffffffffffffffffffff1663a9059cbb84846040518363ffffffff1660e01b8152600401808373ffffffffffffffffffffffffffffffffffffffff1673ffffffffffffffffffffffffffffffffffffffff16815260200182815260200192505050602060405180830381600087803b1580156119c257600080fd5b505af11580156119d6573d6000803e3d6000fd5b505050506040513d60208110156119ec57600080fd5b8101908080519060200190929190505050611a0357fe5b505050565b600080828401905083811015611a86576040517f08c379a000000000000000000000000000000000000000000000000000000000815260040180806020018281038252601b8152602001807f536166654d6174683a206164646974696f6e206f766572666c6f77000000000081525060200191505060405180910390fd5b8091505092915050565b600082821115611b08576040517f08c379a000000000000000000000000000000000000000000000000000000000815260040180806020018281038252601e8152602001807f536166654d6174683a207375627472616374696f6e206f766572666c6f77000081525060200191505060405180910390fd5b600082840390508091505092915050565b600073ffffffffffffffffffffffffffffffffffffffff168173ffffffffffffffffffffffffffffffffffffffff161415611b9f576040517f08c379a0000000000000000000000000000000000000000000000000000000008152600401808060200182810382526026815260200180611c5e6026913960400191505060405180910390fd5b8073ffffffffffffffffffffffffffffffffffffffff166000809054906101000a900473ffffffffffffffffffffffffffffffffffffffff1673ffffffffffffffffffffffffffffffffffffffff167f8be0079c531659141344cd1fd0a4f28419497f9722a3daafe3b4186f6b6457e060405160405180910390a3806000806101000a81548173ffffffffffffffffffffffffffffffffffffffff021916908373ffffffffffffffffffffffffffffffffffffffff1602179055505056fe4f776e61626c653a206e6577206f776e657220697320746865207a65726f2061646472657373416d6f756e74207265717565737465642069732067726561746572207468616e20776974686472617761626c652062616c616e63654e6f7420616e20617574686f72697a6564206e6f646520746f2066756c66696c6c207265717565737473a26469706673582212203f38b9790127d735d72f4c84a83f4baf46d3444a16d2185271dad45deba1f94864736f6c63430006060033",
    "immutableReferences": {},
    "source": "// SPDX-License-Identifier: MIT\npragma solidity 0.6.6;\n\nimport \"@chainlink/contracts/src/v0.6/LinkTokenReceiver.sol\";\nimport \"@chainlink/contracts/src/v0.6/interfaces/ChainlinkRequestInterface.sol\";\nimport \"@chainlink/contracts/src/v0.6/interfaces/OracleInterface.sol\";\nimport \"@chainlink/contracts/src/v0.6/interfaces/LinkTokenInterface.sol\";\nimport \"@chainlink/contracts/src/v0.6/interfaces/WithdrawalInterface.sol\";\nimport \"@chainlink/contracts/src/v0.6/vendor/Ownable.sol\";\nimport \"@chainlink/contracts/src/v0.6/vendor/SafeMathChainlink.sol\";\n\n/**\n * @title The Chainlink Oracle contract\n * @notice Node operators can deploy this contract to fulfill requests sent to them\n */\ncontract Oracle is ChainlinkRequestInterface, OracleInterface, Ownable, LinkTokenReceiver, WithdrawalInterface {\n  using SafeMathChainlink for uint256;\n\n  uint256 constant public EXPIRY_TIME = 5 minutes;\n  uint256 constant private MINIMUM_CONSUMER_GAS_LIMIT = 400000;\n  // We initialize fields to 1 instead of 0 so that the first invocation\n  // does not cost more gas.\n  uint256 constant private ONE_FOR_CONSISTENT_GAS_COST = 1;\n\n  LinkTokenInterface internal LinkToken;\n  mapping(bytes32 => bytes32) private commitments;\n  mapping(address => bool) private authorizedNodes;\n  uint256 private withdrawableTokens = ONE_FOR_CONSISTENT_GAS_COST;\n\n  event OracleRequest(\n    bytes32 indexed specId,\n    address requester,\n    bytes32 requestId,\n    uint256 payment,\n    address callbackAddr,\n    bytes4 callbackFunctionId,\n    uint256 cancelExpiration,\n    uint256 dataVersion,\n    bytes data\n  );\n\n  event CancelOracleRequest(\n    bytes32 indexed requestId\n  );\n\n  /**\n   * @notice Deploy with the address of the LINK token\n   * @dev Sets the LinkToken address for the imported LinkTokenInterface\n   * @param _link The address of the LINK token\n   */\n  constructor(address _link)\n    public\n    Ownable()\n  {\n    LinkToken = LinkTokenInterface(_link); // external but already deployed and unalterable\n  }\n\n  /**\n   * @notice Creates the Chainlink request\n   * @dev Stores the hash of the params as the on-chain commitment for the request.\n   * Emits OracleRequest event for the Chainlink node to detect.\n   * @param _sender The sender of the request\n   * @param _payment The amount of payment given (specified in wei)\n   * @param _specId The Job Specification ID\n   * @param _callbackAddress The callback address for the response\n   * @param _callbackFunctionId The callback function ID for the response\n   * @param _nonce The nonce sent by the requester\n   * @param _dataVersion The specified data version\n   * @param _data The CBOR payload of the request\n   */\n  function oracleRequest(\n    address _sender,\n    uint256 _payment,\n    bytes32 _specId,\n    address _callbackAddress,\n    bytes4 _callbackFunctionId,\n    uint256 _nonce,\n    uint256 _dataVersion,\n    bytes calldata _data\n  )\n    external\n    override\n    onlyLINK()\n    checkCallbackAddress(_callbackAddress)\n  {\n    bytes32 requestId = keccak256(abi.encodePacked(_sender, _nonce));\n    require(commitments[requestId] == 0, \"Must use a unique ID\");\n    // solhint-disable-next-line not-rely-on-time\n    uint256 expiration = now.add(EXPIRY_TIME);\n\n    commitments[requestId] = keccak256(\n      abi.encodePacked(\n        _payment,\n        _callbackAddress,\n        _callbackFunctionId,\n        expiration\n      )\n    );\n\n    emit OracleRequest(\n      _specId,\n      _sender,\n      requestId,\n      _payment,\n      _callbackAddress,\n      _callbackFunctionId,\n      expiration,\n      _dataVersion,\n      _data);\n  }\n\n  /**\n   * @notice Called by the Chainlink node to fulfill requests\n   * @dev Given params must hash back to the commitment stored from `oracleRequest`.\n   * Will call the callback address' callback function without bubbling up error\n   * checking in a `require` so that the node can get paid.\n   * @param _requestId The fulfillment request ID that must match the requester's\n   * @param _payment The payment amount that will be released for the oracle (specified in wei)\n   * @param _callbackAddress The callback address to call for fulfillment\n   * @param _callbackFunctionId The callback function ID to use for fulfillment\n   * @param _expiration The expiration that the node should respond by before the requester can cancel\n   * @param _data The data to return to the consuming contract\n   * @return Status if the external call was successful\n   */\n  function fulfillOracleRequest(\n    bytes32 _requestId,\n    uint256 _payment,\n    address _callbackAddress,\n    bytes4 _callbackFunctionId,\n    uint256 _expiration,\n    bytes32 _data\n  )\n    external\n    onlyAuthorizedNode\n    override\n    isValidRequest(_requestId)\n    returns (bool)\n  {\n    bytes32 paramsHash = keccak256(\n      abi.encodePacked(\n        _payment,\n        _callbackAddress,\n        _callbackFunctionId,\n        _expiration\n      )\n    );\n    require(commitments[_requestId] == paramsHash, \"Params do not match request ID\");\n    withdrawableTokens = withdrawableTokens.add(_payment);\n    delete commitments[_requestId];\n    require(gasleft() >= MINIMUM_CONSUMER_GAS_LIMIT, \"Must provide consumer enough gas\");\n    // All updates to the oracle's fulfillment should come before calling the\n    // callback(addr+functionId) as it is untrusted.\n    // See: https://solidity.readthedocs.io/en/develop/security-considerations.html#use-the-checks-effects-interactions-pattern\n    (bool success, ) = _callbackAddress.call(abi.encodeWithSelector(_callbackFunctionId, _requestId, _data)); // solhint-disable-line avoid-low-level-calls\n    return success;\n  }\n\n  /**\n   * @notice Use this to check if a node is authorized for fulfilling requests\n   * @param _node The address of the Chainlink node\n   * @return The authorization status of the node\n   */\n  function getAuthorizationStatus(address _node)\n    external\n    view\n    override\n    returns (bool)\n  {\n    return authorizedNodes[_node];\n  }\n\n  /**\n   * @notice Sets the fulfillment permission for a given node. Use `true` to allow, `false` to disallow.\n   * @param _node The address of the Chainlink node\n   * @param _allowed Bool value to determine if the node can fulfill requests\n   */\n  function setFulfillmentPermission(address _node, bool _allowed)\n    external\n    override\n    onlyOwner()\n  {\n    authorizedNodes[_node] = _allowed;\n  }\n\n  /**\n   * @notice Allows the node operator to withdraw earned LINK to a given address\n   * @dev The owner of the contract can be another wallet and does not have to be a Chainlink node\n   * @param _recipient The address to send the LINK token to\n   * @param _amount The amount to send (specified in wei)\n   */\n  function withdraw(address _recipient, uint256 _amount)\n    external\n    override(OracleInterface, WithdrawalInterface)\n    onlyOwner\n    hasAvailableFunds(_amount)\n  {\n    withdrawableTokens = withdrawableTokens.sub(_amount);\n    assert(LinkToken.transfer(_recipient, _amount));\n  }\n\n  /**\n   * @notice Displays the amount of LINK that is available for the node operator to withdraw\n   * @dev We use `ONE_FOR_CONSISTENT_GAS_COST` in place of 0 in storage\n   * @return The amount of withdrawable LINK on the contract\n   */\n  function withdrawable()\n    external\n    view\n    override(OracleInterface, WithdrawalInterface)\n    onlyOwner()\n    returns (uint256)\n  {\n    return withdrawableTokens.sub(ONE_FOR_CONSISTENT_GAS_COST);\n  }\n\n  /**\n   * @notice Allows requesters to cancel requests sent to this oracle contract. Will transfer the LINK\n   * sent for the request back to the requester's address.\n   * @dev Given params must hash to a commitment stored on the contract in order for the request to be valid\n   * Emits CancelOracleRequest event.\n   * @param _requestId The request ID\n   * @param _payment The amount of payment given (specified in wei)\n   * @param _callbackFunc The requester's specified callback address\n   * @param _expiration The time of the expiration for the request\n   */\n  function cancelOracleRequest(\n    bytes32 _requestId,\n    uint256 _payment,\n    bytes4 _callbackFunc,\n    uint256 _expiration\n  )\n    external\n    override\n  {\n    bytes32 paramsHash = keccak256(\n      abi.encodePacked(\n        _payment,\n        msg.sender,\n        _callbackFunc,\n        _expiration)\n    );\n    require(paramsHash == commitments[_requestId], \"Params do not match request ID\");\n    // solhint-disable-next-line not-rely-on-time\n    require(_expiration <= now, \"Request is not expired\");\n\n    delete commitments[_requestId];\n    emit CancelOracleRequest(_requestId);\n\n    assert(LinkToken.transfer(msg.sender, _payment));\n  }\n\n  /**\n   * @notice Returns the address of the LINK token\n   * @dev This is the public implementation for chainlinkTokenAddress, which is\n   * an internal method of the ChainlinkClient contract\n   */\n  function getChainlinkToken()\n    public\n    view\n    override\n    returns (address)\n  {\n    return address(LinkToken);\n  }\n\n  // MODIFIERS\n\n  /**\n   * @dev Reverts if amount requested is greater than withdrawable balance\n   * @param _amount The given amount to compare to `withdrawableTokens`\n   */\n  modifier hasAvailableFunds(uint256 _amount) {\n    require(withdrawableTokens >= _amount.add(ONE_FOR_CONSISTENT_GAS_COST), \"Amount requested is greater than withdrawable balance\");\n    _;\n  }\n\n  /**\n   * @dev Reverts if request ID does not exist\n   * @param _requestId The given request ID to check in stored `commitments`\n   */\n  modifier isValidRequest(bytes32 _requestId) {\n    require(commitments[_requestId] != 0, \"Must have a valid requestId\");\n    _;\n  }\n\n  /**\n   * @dev Reverts if `msg.sender` is not authorized to fulfill requests\n   */\n  modifier onlyAuthorizedNode() {\n    require(authorizedNodes[msg.sender] || msg.sender == owner(), \"Not an authorized node to fulfill requests\");\n    _;\n  }\n\n  /**\n   * @dev Reverts if the callback address is the LINK token\n   * @param _to The callback address\n   */\n  modifier checkCallbackAddress(address _to) {\n    require(_to != address(LinkToken), \"Cannot callback to LINK\");\n    _;\n  }\n\n}",
    "sourcePath": "/Users/tylerwoolcott/hackathon-sports-adaptor/contracts/Oracle.sol",
    "compiler": {
        "name": "solc",
        "version": "0.6.6+commit.6c089d02.Emscripten.clang"
    },
    "schemaVersion": "3.4.3",
    "updatedAt": "2021-11-04T14:03:38.633Z",
    "devdoc": {
        "methods": {
            "cancelOracleRequest(bytes32,uint256,bytes4,uint256)": {
                "details": "Given params must hash to a commitment stored on the contract in order for the request to be valid Emits CancelOracleRequest event.",
                "params": {
                    "_callbackFunc": "The requester's specified callback address",
                    "_expiration": "The time of the expiration for the request",
                    "_payment": "The amount of payment given (specified in wei)",
                    "_requestId": "The request ID"
                }
            },
            "constructor": {
                "details": "Sets the LinkToken address for the imported LinkTokenInterface",
                "params": {
                    "_link": "The address of the LINK token"
                }
            },
            "fulfillOracleRequest(bytes32,uint256,address,bytes4,uint256,bytes32)": {
                "details": "Given params must hash back to the commitment stored from `oracleRequest`. Will call the callback address' callback function without bubbling up error checking in a `require` so that the node can get paid.",
                "params": {
                    "_callbackAddress": "The callback address to call for fulfillment",
                    "_callbackFunctionId": "The callback function ID to use for fulfillment",
                    "_data": "The data to return to the consuming contract",
                    "_expiration": "The expiration that the node should respond by before the requester can cancel",
                    "_payment": "The payment amount that will be released for the oracle (specified in wei)",
                    "_requestId": "The fulfillment request ID that must match the requester's"
                },
                "returns": {
                    "_0": "Status if the external call was successful"
                }
            },
            "getAuthorizationStatus(address)": {
                "params": {
                    "_node": "The address of the Chainlink node"
                },
                "returns": {
                    "_0": "The authorization status of the node"
                }
            },
            "getChainlinkToken()": {
                "details": "This is the public implementation for chainlinkTokenAddress, which is an internal method of the ChainlinkClient contract"
            },
            "isOwner()": {
                "details": "Returns true if the caller is the current owner."
            },
            "onTokenTransfer(address,uint256,bytes)": {
                "details": "The data payload's first 2 words will be overwritten by the `_sender` and `_amount` values to ensure correctness. Calls oracleRequest.",
                "params": {
                    "_amount": "Amount of LINK sent (specified in wei)",
                    "_data": "Payload of the transaction",
                    "_sender": "Address of the sender"
                }
            },
            "oracleRequest(address,uint256,bytes32,address,bytes4,uint256,uint256,bytes)": {
                "details": "Stores the hash of the params as the on-chain commitment for the request. Emits OracleRequest event for the Chainlink node to detect.",
                "params": {
                    "_callbackAddress": "The callback address for the response",
                    "_callbackFunctionId": "The callback function ID for the response",
                    "_data": "The CBOR payload of the request",
                    "_dataVersion": "The specified data version",
                    "_nonce": "The nonce sent by the requester",
                    "_payment": "The amount of payment given (specified in wei)",
                    "_sender": "The sender of the request",
                    "_specId": "The Job Specification ID"
                }
            },
            "owner()": {
                "details": "Returns the address of the current owner."
            },
            "setFulfillmentPermission(address,bool)": {
                "params": {
                    "_allowed": "Bool value to determine if the node can fulfill requests",
                    "_node": "The address of the Chainlink node"
                }
            },
            "transferOwnership(address)": {
                "details": "Transfers ownership of the contract to a new account (`newOwner`). Can only be called by the current owner."
            },
            "withdraw(address,uint256)": {
                "details": "The owner of the contract can be another wallet and does not have to be a Chainlink node",
                "params": {
                    "_amount": "The amount to send (specified in wei)",
                    "_recipient": "The address to send the LINK token to"
                }
            },
            "withdrawable()": {
                "details": "We use `ONE_FOR_CONSISTENT_GAS_COST` in place of 0 in storage",
                "returns": {
                    "_0": "The amount of withdrawable LINK on the contract"
                }
            }
        },
        "title": "The Chainlink Oracle contract"
    },
    "userdoc": {
        "methods": {
            "cancelOracleRequest(bytes32,uint256,bytes4,uint256)": {
                "notice": "Allows requesters to cancel requests sent to this oracle contract. Will transfer the LINK sent for the request back to the requester's address."
            },
            "constructor": "Deploy with the address of the LINK token",
            "fulfillOracleRequest(bytes32,uint256,address,bytes4,uint256,bytes32)": {
                "notice": "Called by the Chainlink node to fulfill requests"
            },
            "getAuthorizationStatus(address)": {
                "notice": "Use this to check if a node is authorized for fulfilling requests"
            },
            "getChainlinkToken()": {
                "notice": "Returns the address of the LINK token"
            },
            "onTokenTransfer(address,uint256,bytes)": {
                "notice": "Called when LINK is sent to the contract via `transferAndCall`"
            },
            "oracleRequest(address,uint256,bytes32,address,bytes4,uint256,uint256,bytes)": {
                "notice": "Creates the Chainlink request"
            },
            "setFulfillmentPermission(address,bool)": {
                "notice": "Sets the fulfillment permission for a given node. Use `true` to allow, `false` to disallow."
            },
            "withdraw(address,uint256)": {
                "notice": "Allows the node operator to withdraw earned LINK to a given address"
            },
            "withdrawable()": {
                "notice": "Displays the amount of LINK that is available for the node operator to withdraw"
            }
        },
        "notice": "Node operators can deploy this contract to fulfill requests sent to them"
    }
}