{
  "contractName": "bnbBridge",
  "abi": [
    {
      "inputs": [],
      "name": "numRentalProperties",
      "outputs": [
        {
          "internalType": "uint256",
          "name": "",
          "type": "uint256"
        }
      ],
      "stateMutability": "view",
      "type": "function"
    },
    {
      "inputs": [
        {
          "internalType": "uint256",
          "name": "",
          "type": "uint256"
        }
      ],
      "name": "rentalProperties",
      "outputs": [
        {
          "components": [
            {
              "internalType": "string",
              "name": "Country",
              "type": "string"
            }
          ],
          "internalType": "struct bnbBridge.Location",
          "name": "location",
          "type": "tuple"
        },
        {
          "internalType": "uint256",
          "name": "startDate",
          "type": "uint256"
        },
        {
          "internalType": "uint256",
          "name": "endDate",
          "type": "uint256"
        },
        {
          "internalType": "uint256",
          "name": "pricePerBlock",
          "type": "uint256"
        },
        {
          "internalType": "uint256",
          "name": "oneOffFee",
          "type": "uint256"
        }
      ],
      "stateMutability": "view",
      "type": "function"
    },
    {
      "inputs": [
        {
          "internalType": "string",
          "name": "country",
          "type": "string"
        },
        {
          "internalType": "uint256",
          "name": "startDate",
          "type": "uint256"
        },
        {
          "internalType": "uint256",
          "name": "endDate",
          "type": "uint256"
        },
        {
          "internalType": "uint256",
          "name": "pricePerBlock",
          "type": "uint256"
        },
        {
          "internalType": "uint256",
          "name": "oneOffFee",
          "type": "uint256"
        }
      ],
      "name": "addRentalProperty",
      "outputs": [
        {
          "internalType": "bool",
          "name": "success",
          "type": "bool"
        }
      ],
      "stateMutability": "nonpayable",
      "type": "function"
    }
  ],
  "bytecode": "0x608060405234801561001057600080fd5b50610966806100206000396000f3fe608060405234801561001057600080fd5b50600436106100415760003560e01c80635d6c8fae14610046578063887a20d21461007a578063ba553b0114610098575b600080fd5b610060600480360381019061005b9190610459565b6100c8565b604051610071959493929190610558565b60405180910390f35b61008261019a565b60405161008f91906105b2565b60405180910390f35b6100b260048036038101906100ad9190610632565b6101a0565b6040516100bf91906106e7565b60405180910390f35b6000602052806000526040600020600091509050806000016040518060200160405290816000820180546100fb90610731565b80601f016020809104026020016040519081016040528092919081815260200182805461012790610731565b80156101745780601f1061014957610100808354040283529160200191610174565b820191906000526020600020905b81548152906001019060200180831161015757829003601f168201915b505050505081525050908060010154908060020154908060030154908060040154905085565b60015481565b6000808787905014156101e8576040517f08c379a00000000000000000000000000000000000000000000000000000000081526004016101df906107c0565b60405180910390fd5b600085141561022c576040517f08c379a00000000000000000000000000000000000000000000000000000000081526004016102239061082c565b60405180910390fd5b6000841415610270576040517f08c379a000000000000000000000000000000000000000000000000000000000815260040161026790610898565b60405180910390fd5b6040518060a0016040528060405180602001604052808a8a8080601f016020809104026020016040519081016040528093929190818152602001838380828437600081840152601f19601f8201169050808301925050505050505081525081526020018681526020018581526020018481526020018381525060008060015481526020019081526020016000206000820151816000016000820151816000019080519060200190610322929190610376565b5050506020820151816001015560408201518160020155606082015181600301556080820151816004015590505060016000815480929190610363906108e7565b9190505550600190509695505050505050565b82805461038290610731565b90600052602060002090601f0160209004810192826103a457600085556103eb565b82601f106103bd57805160ff19168380011785556103eb565b828001600101855582156103eb579182015b828111156103ea5782518255916020019190600101906103cf565b5b5090506103f891906103fc565b5090565b5b808211156104155760008160009055506001016103fd565b5090565b600080fd5b600080fd5b6000819050919050565b61043681610423565b811461044157600080fd5b50565b6000813590506104538161042d565b92915050565b60006020828403121561046f5761046e610419565b5b600061047d84828501610444565b91505092915050565b600081519050919050565b600082825260208201905092915050565b60005b838110156104c05780820151818401526020810190506104a5565b838111156104cf576000848401525b50505050565b6000601f19601f8301169050919050565b60006104f182610486565b6104fb8185610491565b935061050b8185602086016104a2565b610514816104d5565b840191505092915050565b6000602083016000830151848203600086015261053c82826104e6565b9150508091505092915050565b61055281610423565b82525050565b600060a0820190508181036000830152610572818861051f565b90506105816020830187610549565b61058e6040830186610549565b61059b6060830185610549565b6105a86080830184610549565b9695505050505050565b60006020820190506105c76000830184610549565b92915050565b600080fd5b600080fd5b600080fd5b60008083601f8401126105f2576105f16105cd565b5b8235905067ffffffffffffffff81111561060f5761060e6105d2565b5b60208301915083600182028301111561062b5761062a6105d7565b5b9250929050565b60008060008060008060a0878903121561064f5761064e610419565b5b600087013567ffffffffffffffff81111561066d5761066c61041e565b5b61067989828a016105dc565b9650965050602061068c89828a01610444565b945050604061069d89828a01610444565b93505060606106ae89828a01610444565b92505060806106bf89828a01610444565b9150509295509295509295565b60008115159050919050565b6106e1816106cc565b82525050565b60006020820190506106fc60008301846106d8565b92915050565b7f4e487b7100000000000000000000000000000000000000000000000000000000600052602260045260246000fd5b6000600282049050600182168061074957607f821691505b6020821081141561075d5761075c610702565b5b50919050565b600082825260208201905092915050565b7f436f756e747279206d7573742062652073706563696669656400000000000000600082015250565b60006107aa601983610763565b91506107b582610774565b602082019050919050565b600060208201905081810360008301526107d98161079d565b9050919050565b7f53746172742064617465206d7573742062652073706563696669656400000000600082015250565b6000610816601c83610763565b9150610821826107e0565b602082019050919050565b6000602082019050818103600083015261084581610809565b9050919050565b7f456e642064617465206d75737420626520737065636966696564000000000000600082015250565b6000610882601a83610763565b915061088d8261084c565b602082019050919050565b600060208201905081810360008301526108b181610875565b9050919050565b7f4e487b7100000000000000000000000000000000000000000000000000000000600052601160045260246000fd5b60006108f282610423565b91507fffffffffffffffffffffffffffffffffffffffffffffffffffffffffffffffff821415610925576109246108b8565b5b60018201905091905056fea26469706673582212203c064ee23bfe227444ce2fd191c35f57cc05df08ee37ee2c8fdbdb89ac3821fa64736f6c63430008090033",
  "immutableReferences": {},
  "source": "// SPDX-License-Identifier: MIT\r\npragma solidity 0.8.9;\r\n\r\ncontract bnbBridge {\r\n\r\n  mapping(uint => RentalProperty) public rentalProperties;\r\n  uint public numRentalProperties; \r\n\r\n  // Expect StartDate and EndDate to change in the future in order to fit the real world better\r\n  struct RentalProperty {\r\n    Location location;\r\n    // Ethereum block when the availability period starts\r\n    uint startDate;\r\n    // Ethereum block when the availability period ends\r\n    uint endDate;\r\n    uint pricePerBlock;\r\n    uint oneOffFee;\r\n  }\r\n\r\n  struct Location {\r\n    string Country;\r\n  }\r\n\r\n  function addRentalProperty(\r\n    string calldata country,\r\n    uint startDate,\r\n    uint endDate,\r\n    uint pricePerBlock,\r\n    uint oneOffFee\r\n  ) public returns (bool success) {\r\n    require(bytes(country).length != 0, \"Country must be specified\");\r\n    require(startDate != 0, \"Start date must be specified\");\r\n    require(endDate != 0, \"End date must be specified\");\r\n\r\n    rentalProperties[numRentalProperties] = RentalProperty(\r\n      Location(country),\r\n      startDate,\r\n      endDate,\r\n      pricePerBlock,\r\n      oneOffFee\r\n    );\r\n    numRentalProperties++ ;\r\n\r\n    return true;\r\n  }\r\n}\r\n",
  "sourcePath": "D:\\dev\\bnbBridge\\contracts\\bnbBridge.sol",
  "compiler": {
    "name": "solc",
    "version": "0.8.9+commit.e5eed63a.Emscripten.clang"
  },
  "schemaVersion": "3.4.3",
  "updatedAt": "2021-10-31T12:47:55.803Z",
  "devdoc": {
    "kind": "dev",
    "methods": {},
    "version": 1
  },
  "userdoc": {
    "kind": "user",
    "methods": {},
    "version": 1
  }
}