{
  "contractName": "bnbBridge",
  "abi": [
    {
      "inputs": [],
      "name": "numRentalProperties",
      "outputs": [
        {
          "internalType": "uint256",
          "name": "",
          "type": "uint256"
        }
      ],
      "stateMutability": "view",
      "type": "function",
      "constant": true
    },
    {
      "inputs": [
        {
          "internalType": "uint256",
          "name": "",
          "type": "uint256"
        }
      ],
      "name": "rentalProperties",
      "outputs": [
        {
          "internalType": "uint256",
          "name": "id",
          "type": "uint256"
        },
        {
          "internalType": "string",
          "name": "location",
          "type": "string"
        },
        {
          "internalType": "uint256",
          "name": "startDate",
          "type": "uint256"
        },
        {
          "internalType": "uint256",
          "name": "endDate",
          "type": "uint256"
        },
        {
          "internalType": "uint256",
          "name": "pricePerBlock",
          "type": "uint256"
        },
        {
          "internalType": "uint256",
          "name": "oneOffFee",
          "type": "uint256"
        },
        {
          "internalType": "address",
          "name": "owner",
          "type": "address"
        }
      ],
      "stateMutability": "view",
      "type": "function",
      "constant": true
    },
    {
      "inputs": [
        {
          "internalType": "string",
          "name": "location",
          "type": "string"
        },
        {
          "internalType": "uint256",
          "name": "startDate",
          "type": "uint256"
        },
        {
          "internalType": "uint256",
          "name": "endDate",
          "type": "uint256"
        },
        {
          "internalType": "uint256",
          "name": "pricePerBlock",
          "type": "uint256"
        },
        {
          "internalType": "uint256",
          "name": "oneOffFee",
          "type": "uint256"
        }
      ],
      "name": "addRentalProperty",
      "outputs": [
        {
          "internalType": "bool",
          "name": "success",
          "type": "bool"
        }
      ],
      "stateMutability": "nonpayable",
      "type": "function"
    }
  ],
  "bytecode": "0x608060405234801561001057600080fd5b506109fe806100206000396000f3fe608060405234801561001057600080fd5b50600436106100415760003560e01c80635d6c8fae14610046578063887a20d21461007c578063ba553b011461009a575b600080fd5b610060600480360381019061005b91906104cf565b6100ca565b60405161007397969594939291906105e5565b60405180910390f35b6100846101b4565b604051610091919061065b565b60405180910390f35b6100b460048036038101906100af91906106db565b6101ba565b6040516100c19190610790565b60405180910390f35b60006020528060005260406000206000915090508060000154908060010180546100f3906107da565b80601f016020809104026020016040519081016040528092919081815260200182805461011f906107da565b801561016c5780601f106101415761010080835404028352916020019161016c565b820191906000526020600020905b81548152906001019060200180831161014f57829003601f168201915b5050505050908060020154908060030154908060040154908060050154908060060160009054906101000a900473ffffffffffffffffffffffffffffffffffffffff16905087565b60015481565b600080878790501415610202576040517f08c379a00000000000000000000000000000000000000000000000000000000081526004016101f990610858565b60405180910390fd5b6000851415610246576040517f08c379a000000000000000000000000000000000000000000000000000000000815260040161023d906108c4565b60405180910390fd5b600084141561028a576040517f08c379a000000000000000000000000000000000000000000000000000000000815260040161028190610930565b60405180910390fd5b6040518060e00160405280600154815260200188888080601f016020809104026020016040519081016040528093929190818152602001838380828437600081840152601f19601f8201169050808301925050505050505081526020018681526020018581526020018481526020018381526020013373ffffffffffffffffffffffffffffffffffffffff1681525060008060015481526020019081526020016000206000820151816000015560208201518160010190805190602001906103539291906103ec565b5060408201518160020155606082015181600301556080820151816004015560a0820151816005015560c08201518160060160006101000a81548173ffffffffffffffffffffffffffffffffffffffff021916908373ffffffffffffffffffffffffffffffffffffffff160217905550905050600160008154809291906103d99061097f565b9190505550600190509695505050505050565b8280546103f8906107da565b90600052602060002090601f01602090048101928261041a5760008555610461565b82601f1061043357805160ff1916838001178555610461565b82800160010185558215610461579182015b82811115610460578251825591602001919060010190610445565b5b50905061046e9190610472565b5090565b5b8082111561048b576000816000905550600101610473565b5090565b600080fd5b600080fd5b6000819050919050565b6104ac81610499565b81146104b757600080fd5b50565b6000813590506104c9816104a3565b92915050565b6000602082840312156104e5576104e461048f565b5b60006104f3848285016104ba565b91505092915050565b61050581610499565b82525050565b600081519050919050565b600082825260208201905092915050565b60005b8381101561054557808201518184015260208101905061052a565b83811115610554576000848401525b50505050565b6000601f19601f8301169050919050565b60006105768261050b565b6105808185610516565b9350610590818560208601610527565b6105998161055a565b840191505092915050565b600073ffffffffffffffffffffffffffffffffffffffff82169050919050565b60006105cf826105a4565b9050919050565b6105df816105c4565b82525050565b600060e0820190506105fa600083018a6104fc565b818103602083015261060c818961056b565b905061061b60408301886104fc565b61062860608301876104fc565b61063560808301866104fc565b61064260a08301856104fc565b61064f60c08301846105d6565b98975050505050505050565b600060208201905061067060008301846104fc565b92915050565b600080fd5b600080fd5b600080fd5b60008083601f84011261069b5761069a610676565b5b8235905067ffffffffffffffff8111156106b8576106b761067b565b5b6020830191508360018202830111156106d4576106d3610680565b5b9250929050565b60008060008060008060a087890312156106f8576106f761048f565b5b600087013567ffffffffffffffff81111561071657610715610494565b5b61072289828a01610685565b9650965050602061073589828a016104ba565b945050604061074689828a016104ba565b935050606061075789828a016104ba565b925050608061076889828a016104ba565b9150509295509295509295565b60008115159050919050565b61078a81610775565b82525050565b60006020820190506107a56000830184610781565b92915050565b7f4e487b7100000000000000000000000000000000000000000000000000000000600052602260045260246000fd5b600060028204905060018216806107f257607f821691505b60208210811415610806576108056107ab565b5b50919050565b7f4c6f636174696f6e206d75737420626520737065636966696564000000000000600082015250565b6000610842601a83610516565b915061084d8261080c565b602082019050919050565b6000602082019050818103600083015261087181610835565b9050919050565b7f53746172742064617465206d7573742062652073706563696669656400000000600082015250565b60006108ae601c83610516565b91506108b982610878565b602082019050919050565b600060208201905081810360008301526108dd816108a1565b9050919050565b7f456e642064617465206d75737420626520737065636966696564000000000000600082015250565b600061091a601a83610516565b9150610925826108e4565b602082019050919050565b600060208201905081810360008301526109498161090d565b9050919050565b7f4e487b7100000000000000000000000000000000000000000000000000000000600052601160045260246000fd5b600061098a82610499565b91507fffffffffffffffffffffffffffffffffffffffffffffffffffffffffffffffff8214156109bd576109bc610950565b5b60018201905091905056fea264697066735822122000b4d6614d3cce9260a04af9b35dd74096870599fb6b9d7f763838d58e8daad564736f6c63430008090033",
  "immutableReferences": {},
  "source": "// SPDX-License-Identifier: MIT\r\npragma solidity 0.8.9;\r\n\r\ncontract bnbBridge {\r\n\r\n  mapping(uint => RentalProperty) public rentalProperties;\r\n  uint public numRentalProperties; \r\n\r\n  // Expect StartDate and EndDate to change in the future in order to fit the real world better\r\n  struct RentalProperty {\r\n    uint id;\r\n    string location;\r\n    // Ethereum block when the availability period starts\r\n    uint startDate;\r\n    // Ethereum block when the availability period ends\r\n    uint endDate;\r\n    uint pricePerBlock;\r\n    uint oneOffFee;\r\n    address owner;\r\n  }\r\n\r\n  function addRentalProperty(\r\n    string calldata location,\r\n    uint startDate,\r\n    uint endDate,\r\n    uint pricePerBlock,\r\n    uint oneOffFee\r\n  ) public returns (bool success) {\r\n    require(bytes(location).length != 0, \"Location must be specified\");\r\n    require(startDate != 0, \"Start date must be specified\");\r\n    require(endDate != 0, \"End date must be specified\");\r\n\r\n    rentalProperties[numRentalProperties] = RentalProperty(\r\n      numRentalProperties,\r\n      location,\r\n      startDate,\r\n      endDate,\r\n      pricePerBlock,\r\n      oneOffFee,\r\n      msg.sender\r\n    );\r\n    numRentalProperties++ ;\r\n\r\n    return true;\r\n  }\r\n}\r\n",
  "sourcePath": "D:\\dev\\bnbBridge\\contracts\\bnbBridge.sol",
  "compiler": {
    "name": "solc",
    "version": "0.8.9+commit.e5eed63a.Emscripten.clang"
  },
  "schemaVersion": "3.4.3",
  "updatedAt": "2021-11-12T09:59:18.718Z",
  "networkType": "ethereum",
  "devdoc": {
    "kind": "dev",
    "methods": {},
    "version": 1
  },
  "userdoc": {
    "kind": "user",
    "methods": {},
    "version": 1
  }
}